{
    "contractName": "PetShop",
    "abi": [
        {
            "inputs": [],
            "stateMutability": "nonpayable",
            "type": "constructor"
        },
        {
            "anonymous": false,
            "inputs": [
                {
                    "indexed": true,
                    "internalType": "address",
                    "name": "owner",
                    "type": "address"
                },
                {
                    "indexed": true,
                    "internalType": "address",
                    "name": "approved",
                    "type": "address"
                },
                {
                    "indexed": true,
                    "internalType": "uint256",
                    "name": "tokenId",
                    "type": "uint256"
                }
            ],
            "name": "Approval",
            "type": "event"
        },
        {
            "anonymous": false,
            "inputs": [
                {
                    "indexed": true,
                    "internalType": "address",
                    "name": "owner",
                    "type": "address"
                },
                {
                    "indexed": true,
                    "internalType": "address",
                    "name": "operator",
                    "type": "address"
                },
                {
                    "indexed": false,
                    "internalType": "bool",
                    "name": "approved",
                    "type": "bool"
                }
            ],
            "name": "ApprovalForAll",
            "type": "event"
        },
        {
            "anonymous": false,
            "inputs": [
                {
                    "indexed": true,
                    "internalType": "address",
                    "name": "previousOwner",
                    "type": "address"
                },
                {
                    "indexed": true,
                    "internalType": "address",
                    "name": "newOwner",
                    "type": "address"
                }
            ],
            "name": "OwnershipTransferred",
            "type": "event"
        },
        {
            "anonymous": false,
            "inputs": [
                {
                    "indexed": true,
                    "internalType": "address",
                    "name": "from",
                    "type": "address"
                },
                {
                    "indexed": true,
                    "internalType": "address",
                    "name": "to",
                    "type": "address"
                },
                {
                    "indexed": true,
                    "internalType": "uint256",
                    "name": "tokenId",
                    "type": "uint256"
                }
            ],
            "name": "Transfer",
            "type": "event"
        },
        {
            "inputs": [
                {
                    "internalType": "address",
                    "name": "to",
                    "type": "address"
                },
                {
                    "internalType": "uint256",
                    "name": "tokenId",
                    "type": "uint256"
                }
            ],
            "name": "approve",
            "outputs": [],
            "stateMutability": "nonpayable",
            "type": "function"
        },
        {
            "inputs": [
                {
                    "internalType": "address",
                    "name": "owner",
                    "type": "address"
                }
            ],
            "name": "balanceOf",
            "outputs": [
                {
                    "internalType": "uint256",
                    "name": "",
                    "type": "uint256"
                }
            ],
            "stateMutability": "view",
            "type": "function"
        },
        {
            "inputs": [
                {
                    "internalType": "uint256",
                    "name": "tokenId",
                    "type": "uint256"
                }
            ],
            "name": "burn",
            "outputs": [],
            "stateMutability": "nonpayable",
            "type": "function"
        },
        {
            "inputs": [
                {
                    "internalType": "uint256",
                    "name": "tokenId",
                    "type": "uint256"
                }
            ],
            "name": "getApproved",
            "outputs": [
                {
                    "internalType": "address",
                    "name": "",
                    "type": "address"
                }
            ],
            "stateMutability": "view",
            "type": "function"
        },
        {
            "inputs": [
                {
                    "internalType": "address",
                    "name": "owner",
                    "type": "address"
                },
                {
                    "internalType": "address",
                    "name": "operator",
                    "type": "address"
                }
            ],
            "name": "isApprovedForAll",
            "outputs": [
                {
                    "internalType": "bool",
                    "name": "",
                    "type": "bool"
                }
            ],
            "stateMutability": "view",
            "type": "function"
        },
        {
            "inputs": [],
            "name": "name",
            "outputs": [
                {
                    "internalType": "string",
                    "name": "",
                    "type": "string"
                }
            ],
            "stateMutability": "view",
            "type": "function"
        },
        {
            "inputs": [],
            "name": "owner",
            "outputs": [
                {
                    "internalType": "address",
                    "name": "",
                    "type": "address"
                }
            ],
            "stateMutability": "view",
            "type": "function"
        },
        {
            "inputs": [
                {
                    "internalType": "uint256",
                    "name": "tokenId",
                    "type": "uint256"
                }
            ],
            "name": "ownerOf",
            "outputs": [
                {
                    "internalType": "address",
                    "name": "",
                    "type": "address"
                }
            ],
            "stateMutability": "view",
            "type": "function"
        },
        {
            "inputs": [],
            "name": "renounceOwnership",
            "outputs": [],
            "stateMutability": "nonpayable",
            "type": "function"
        },
        {
            "inputs": [
                {
                    "internalType": "address",
                    "name": "to",
                    "type": "address"
                },
                {
                    "internalType": "string",
                    "name": "uri",
                    "type": "string"
                }
            ],
            "name": "safeMint",
            "outputs": [],
            "stateMutability": "nonpayable",
            "type": "function"
        },
        {
            "inputs": [
                {
                    "internalType": "address",
                    "name": "from",
                    "type": "address"
                },
                {
                    "internalType": "address",
                    "name": "to",
                    "type": "address"
                },
                {
                    "internalType": "uint256",
                    "name": "tokenId",
                    "type": "uint256"
                }
            ],
            "name": "safeTransferFrom",
            "outputs": [],
            "stateMutability": "nonpayable",
            "type": "function"
        },
        {
            "inputs": [
                {
                    "internalType": "address",
                    "name": "from",
                    "type": "address"
                },
                {
                    "internalType": "address",
                    "name": "to",
                    "type": "address"
                },
                {
                    "internalType": "uint256",
                    "name": "tokenId",
                    "type": "uint256"
                },
                {
                    "internalType": "bytes",
                    "name": "_data",
                    "type": "bytes"
                }
            ],
            "name": "safeTransferFrom",
            "outputs": [],
            "stateMutability": "nonpayable",
            "type": "function"
        },
        {
            "inputs": [
                {
                    "internalType": "address",
                    "name": "operator",
                    "type": "address"
                },
                {
                    "internalType": "bool",
                    "name": "approved",
                    "type": "bool"
                }
            ],
            "name": "setApprovalForAll",
            "outputs": [],
            "stateMutability": "nonpayable",
            "type": "function"
        },
        {
            "inputs": [
                {
                    "internalType": "bytes4",
                    "name": "interfaceId",
                    "type": "bytes4"
                }
            ],
            "name": "supportsInterface",
            "outputs": [
                {
                    "internalType": "bool",
                    "name": "",
                    "type": "bool"
                }
            ],
            "stateMutability": "view",
            "type": "function"
        },
        {
            "inputs": [],
            "name": "symbol",
            "outputs": [
                {
                    "internalType": "string",
                    "name": "",
                    "type": "string"
                }
            ],
            "stateMutability": "view",
            "type": "function"
        },
        {
            "inputs": [
                {
                    "internalType": "uint256",
                    "name": "tokenId",
                    "type": "uint256"
                }
            ],
            "name": "tokenURI",
            "outputs": [
                {
                    "internalType": "string",
                    "name": "",
                    "type": "string"
                }
            ],
            "stateMutability": "view",
            "type": "function"
        },
        {
            "inputs": [
                {
                    "internalType": "address",
                    "name": "from",
                    "type": "address"
                },
                {
                    "internalType": "address",
                    "name": "to",
                    "type": "address"
                },
                {
                    "internalType": "uint256",
                    "name": "tokenId",
                    "type": "uint256"
                }
            ],
            "name": "transferFrom",
            "outputs": [],
            "stateMutability": "nonpayable",
            "type": "function"
        },
        {
            "inputs": [
                {
                    "internalType": "address",
                    "name": "newOwner",
                    "type": "address"
                }
            ],
            "name": "transferOwnership",
            "outputs": [],
            "stateMutability": "nonpayable",
            "type": "function"
        }
    ],
    "bytecode": "60806040523480156200001157600080fd5b506040805180820182526007815266050657453686f760cc1b6020808301918252835180850190945260038452620a0a6960eb1b9084015281519192916200005c91600091620000eb565b50805162000072906001906020840190620000eb565b5050506200008f620000896200009560201b60201c565b62000099565b620001ce565b3390565b600780546001600160a01b038381166001600160a01b0319831681179093556040519116919082907f8be0079c531659141344cd1fd0a4f28419497f9722a3daafe3b4186f6b6457e090600090a35050565b828054620000f99062000191565b90600052602060002090601f0160209004810192826200011d576000855562000168565b82601f106200013857805160ff191683800117855562000168565b8280016001018555821562000168579182015b82811115620001685782518255916020019190600101906200014b565b50620001769291506200017a565b5090565b5b808211156200017657600081556001016200017b565b600181811c90821680620001a657607f821691505b60208210811415620001c857634e487b7160e01b600052602260045260246000fd5b50919050565b611ab280620001de6000396000f3fe608060405234801561001057600080fd5b50600436106101165760003560e01c8063715018a6116100a2578063b88d4fde11610071578063b88d4fde14610239578063c87b56dd1461024c578063d204c45e1461025f578063e985e9c514610272578063f2fde38b146102ae57600080fd5b8063715018a6146102055780638da5cb5b1461020d57806395d89b411461021e578063a22cb4651461022657600080fd5b806323b872dd116100e957806323b872dd1461019857806342842e0e146101ab57806342966c68146101be5780636352211e146101d157806370a08231146101e457600080fd5b806301ffc9a71461011b57806306fdde0314610143578063081812fc14610158578063095ea7b314610183575b600080fd5b61012e610129366004611515565b6102c1565b60405190151581526020015b60405180910390f35b61014b610313565b60405161013a919061158a565b61016b61016636600461159d565b6103a5565b6040516001600160a01b03909116815260200161013a565b6101966101913660046115d2565b610432565b005b6101966101a63660046115fc565b610548565b6101966101b93660046115fc565b61057a565b6101966101cc36600461159d565b610595565b61016b6101df36600461159d565b61060f565b6101f76101f2366004611638565b610686565b60405190815260200161013a565b61019661070d565b6007546001600160a01b031661016b565b61014b610743565b610196610234366004611653565b610752565b61019661024736600461171b565b610761565b61014b61025a36600461159d565b610799565b61019661026d366004611797565b6107a4565b61012e6102803660046117f9565b6001600160a01b03918216600090815260056020908152604080832093909416825291909152205460ff1690565b6101966102bc366004611638565b6107fd565b60006001600160e01b031982166380ac58cd60e01b14806102f257506001600160e01b03198216635b5e139f60e01b145b8061030d57506301ffc9a760e01b6001600160e01b03198316145b92915050565b6060600080546103229061182c565b80601f016020809104026020016040519081016040528092919081815260200182805461034e9061182c565b801561039b5780601f106103705761010080835404028352916020019161039b565b820191906000526020600020905b81548152906001019060200180831161037e57829003601f168201915b5050505050905090565b60006103b082610895565b6104165760405162461bcd60e51b815260206004820152602c60248201527f4552433732313a20617070726f76656420717565727920666f72206e6f6e657860448201526b34b9ba32b73a103a37b5b2b760a11b60648201526084015b60405180910390fd5b506000908152600460205260409020546001600160a01b031690565b600061043d8261060f565b9050806001600160a01b0316836001600160a01b031614156104ab5760405162461bcd60e51b815260206004820152602160248201527f4552433732313a20617070726f76616c20746f2063757272656e74206f776e656044820152603960f91b606482015260840161040d565b336001600160a01b03821614806104c757506104c78133610280565b6105395760405162461bcd60e51b815260206004820152603860248201527f4552433732313a20617070726f76652063616c6c6572206973206e6f74206f7760448201527f6e6572206e6f7220617070726f76656420666f7220616c6c0000000000000000606482015260840161040d565b61054383836108b2565b505050565b610553335b82610920565b61056f5760405162461bcd60e51b815260040161040d90611867565b610543838383610a0a565b61054383838360405180602001604052806000815250610761565b61059e3361054d565b6106035760405162461bcd60e51b815260206004820152603060248201527f4552433732314275726e61626c653a2063616c6c6572206973206e6f74206f7760448201526f1b995c881b9bdc88185c1c1c9bdd995960821b606482015260840161040d565b61060c81610baa565b50565b6000818152600260205260408120546001600160a01b03168061030d5760405162461bcd60e51b815260206004820152602960248201527f4552433732313a206f776e657220717565727920666f72206e6f6e657869737460448201526832b73a103a37b5b2b760b91b606482015260840161040d565b60006001600160a01b0382166106f15760405162461bcd60e51b815260206004820152602a60248201527f4552433732313a2062616c616e636520717565727920666f7220746865207a65604482015269726f206164647265737360b01b606482015260840161040d565b506001600160a01b031660009081526003602052604090205490565b6007546001600160a01b031633146107375760405162461bcd60e51b815260040161040d906118b8565b6107416000610bb3565b565b6060600180546103229061182c565b61075d338383610c05565b5050565b61076b3383610920565b6107875760405162461bcd60e51b815260040161040d90611867565b61079384848484610cd4565b50505050565b606061030d82610d07565b6007546001600160a01b031633146107ce5760405162461bcd60e51b815260040161040d906118b8565b60006107d960085490565b90506107e9600880546001019055565b6107f38382610e76565b6105438183610e90565b6007546001600160a01b031633146108275760405162461bcd60e51b815260040161040d906118b8565b6001600160a01b03811661088c5760405162461bcd60e51b815260206004820152602660248201527f4f776e61626c653a206e6577206f776e657220697320746865207a65726f206160448201526564647265737360d01b606482015260840161040d565b61060c81610bb3565b6000908152600260205260409020546001600160a01b0316151590565b600081815260046020526040902080546001600160a01b0319166001600160a01b03841690811790915581906108e78261060f565b6001600160a01b03167f8c5be1e5ebec7d5bd14f71427d1e84f3dd0314c0f7b2291e5b200ac8c7c3b92560405160405180910390a45050565b600061092b82610895565b61098c5760405162461bcd60e51b815260206004820152602c60248201527f4552433732313a206f70657261746f7220717565727920666f72206e6f6e657860448201526b34b9ba32b73a103a37b5b2b760a11b606482015260840161040d565b60006109978361060f565b9050806001600160a01b0316846001600160a01b031614806109d25750836001600160a01b03166109c7846103a5565b6001600160a01b0316145b80610a0257506001600160a01b0380821660009081526005602090815260408083209388168352929052205460ff165b949350505050565b826001600160a01b0316610a1d8261060f565b6001600160a01b031614610a855760405162461bcd60e51b815260206004820152602960248201527f4552433732313a207472616e73666572206f6620746f6b656e2074686174206960448201526839903737ba1037bbb760b91b606482015260840161040d565b6001600160a01b038216610ae75760405162461bcd60e51b8152602060048201526024808201527f4552433732313a207472616e7366657220746f20746865207a65726f206164646044820152637265737360e01b606482015260840161040d565b610af26000826108b2565b6001600160a01b0383166000908152600360205260408120805460019290610b1b908490611903565b90915550506001600160a01b0382166000908152600360205260408120805460019290610b4990849061191a565b909155505060008181526002602052604080822080546001600160a01b0319166001600160a01b0386811691821790925591518493918716917fddf252ad1be2c89b69c2b068fc378daa952ba7f163c4a11628f55a4df523b3ef91a4505050565b61060c81610f1b565b600780546001600160a01b038381166001600160a01b0319831681179093556040519116919082907f8be0079c531659141344cd1fd0a4f28419497f9722a3daafe3b4186f6b6457e090600090a35050565b816001600160a01b0316836001600160a01b03161415610c675760405162461bcd60e51b815260206004820152601960248201527f4552433732313a20617070726f766520746f2063616c6c657200000000000000604482015260640161040d565b6001600160a01b03838116600081815260056020908152604080832094871680845294825291829020805460ff191686151590811790915591519182527f17307eab39ab6107e8899845ad3d59bd9653f200f220920489ca2b5937696c31910160405180910390a3505050565b610cdf848484610a0a565b610ceb84848484610f5b565b6107935760405162461bcd60e51b815260040161040d90611932565b6060610d1282610895565b610d785760405162461bcd60e51b815260206004820152603160248201527f45524337323155524953746f726167653a2055524920717565727920666f72206044820152703737b732bc34b9ba32b73a103a37b5b2b760791b606482015260840161040d565b60008281526006602052604081208054610d919061182c565b80601f0160208091040260200160405190810160405280929190818152602001828054610dbd9061182c565b8015610e0a5780601f10610ddf57610100808354040283529160200191610e0a565b820191906000526020600020905b815481529060010190602001808311610ded57829003601f168201915b505050505090506000610e2860408051602081019091526000815290565b9050805160001415610e3b575092915050565b815115610e6d578082604051602001610e55929190611984565b60405160208183030381529060405292505050919050565b610a0284611059565b61075d828260405180602001604052806000815250611131565b610e9982610895565b610efc5760405162461bcd60e51b815260206004820152602e60248201527f45524337323155524953746f726167653a2055524920736574206f66206e6f6e60448201526d32bc34b9ba32b73a103a37b5b2b760911b606482015260840161040d565b6000828152600660209081526040909120825161054392840190611430565b610f2481611164565b60008181526006602052604090208054610f3d9061182c565b15905061060c57600081815260066020526040812061060c916114b4565b60006001600160a01b0384163b1561104e57604051630a85bd0160e11b81526001600160a01b0385169063150b7a0290610f9f9033908990889088906004016119b3565b6020604051808303816000875af1925050508015610fda575060408051601f3d908101601f19168201909252610fd7918101906119f0565b60015b611034573d808015611008576040519150601f19603f3d011682016040523d82523d6000602084013e61100d565b606091505b50805161102c5760405162461bcd60e51b815260040161040d90611932565b805181602001fd5b6001600160e01b031916630a85bd0160e11b149050610a02565b506001949350505050565b606061106482610895565b6110c85760405162461bcd60e51b815260206004820152602f60248201527f4552433732314d657461646174613a2055524920717565727920666f72206e6f60448201526e3732bc34b9ba32b73a103a37b5b2b760891b606482015260840161040d565b60006110df60408051602081019091526000815290565b905060008151116110ff576040518060200160405280600081525061112a565b80611109846111ff565b60405160200161111a929190611984565b6040516020818303038152906040525b9392505050565b61113b83836112fd565b6111486000848484610f5b565b6105435760405162461bcd60e51b815260040161040d90611932565b600061116f8261060f565b905061117c6000836108b2565b6001600160a01b03811660009081526003602052604081208054600192906111a5908490611903565b909155505060008281526002602052604080822080546001600160a01b0319169055518391906001600160a01b038416907fddf252ad1be2c89b69c2b068fc378daa952ba7f163c4a11628f55a4df523b3ef908390a45050565b6060816112235750506040805180820190915260018152600360fc1b602082015290565b8160005b811561124d578061123781611a0d565b91506112469050600a83611a3e565b9150611227565b60008167ffffffffffffffff8111156112685761126861168f565b6040519080825280601f01601f191660200182016040528015611292576020820181803683370190505b5090505b8415610a02576112a7600183611903565b91506112b4600a86611a52565b6112bf90603061191a565b60f81b8183815181106112d4576112d4611a66565b60200101906001600160f81b031916908160001a9053506112f6600a86611a3e565b9450611296565b6001600160a01b0382166113535760405162461bcd60e51b815260206004820181905260248201527f4552433732313a206d696e7420746f20746865207a65726f2061646472657373604482015260640161040d565b61135c81610895565b156113a95760405162461bcd60e51b815260206004820152601c60248201527f4552433732313a20746f6b656e20616c7265616479206d696e74656400000000604482015260640161040d565b6001600160a01b03821660009081526003602052604081208054600192906113d290849061191a565b909155505060008181526002602052604080822080546001600160a01b0319166001600160a01b03861690811790915590518392907fddf252ad1be2c89b69c2b068fc378daa952ba7f163c4a11628f55a4df523b3ef908290a45050565b82805461143c9061182c565b90600052602060002090601f01602090048101928261145e57600085556114a4565b82601f1061147757805160ff19168380011785556114a4565b828001600101855582156114a4579182015b828111156114a4578251825591602001919060010190611489565b506114b09291506114ea565b5090565b5080546114c09061182c565b6000825580601f106114d0575050565b601f01602090049060005260206000209081019061060c91905b5b808211156114b057600081556001016114eb565b6001600160e01b03198116811461060c57600080fd5b60006020828403121561152757600080fd5b813561112a816114ff565b60005b8381101561154d578181015183820152602001611535565b838111156107935750506000910152565b60008151808452611576816020860160208601611532565b601f01601f19169290920160200192915050565b60208152600061112a602083018461155e565b6000602082840312156115af57600080fd5b5035919050565b80356001600160a01b03811681146115cd57600080fd5b919050565b600080604083850312156115e557600080fd5b6115ee836115b6565b946020939093013593505050565b60008060006060848603121561161157600080fd5b61161a846115b6565b9250611628602085016115b6565b9150604084013590509250925092565b60006020828403121561164a57600080fd5b61112a826115b6565b6000806040838503121561166657600080fd5b61166f836115b6565b91506020830135801515811461168457600080fd5b809150509250929050565b634e487b7160e01b600052604160045260246000fd5b600067ffffffffffffffff808411156116c0576116c061168f565b604051601f8501601f19908116603f011681019082821181831017156116e8576116e861168f565b8160405280935085815286868601111561170157600080fd5b858560208301376000602087830101525050509392505050565b6000806000806080858703121561173157600080fd5b61173a856115b6565b9350611748602086016115b6565b925060408501359150606085013567ffffffffffffffff81111561176b57600080fd5b8501601f8101871361177c57600080fd5b61178b878235602084016116a5565b91505092959194509250565b600080604083850312156117aa57600080fd5b6117b3836115b6565b9150602083013567ffffffffffffffff8111156117cf57600080fd5b8301601f810185136117e057600080fd5b6117ef858235602084016116a5565b9150509250929050565b6000806040838503121561180c57600080fd5b611815836115b6565b9150611823602084016115b6565b90509250929050565b600181811c9082168061184057607f821691505b6020821081141561186157634e487b7160e01b600052602260045260246000fd5b50919050565b60208082526031908201527f4552433732313a207472616e736665722063616c6c6572206973206e6f74206f6040820152701ddb995c881b9bdc88185c1c1c9bdd9959607a1b606082015260800190565b6020808252818101527f4f776e61626c653a2063616c6c6572206973206e6f7420746865206f776e6572604082015260600190565b634e487b7160e01b600052601160045260246000fd5b600082821015611915576119156118ed565b500390565b6000821982111561192d5761192d6118ed565b500190565b60208082526032908201527f4552433732313a207472616e7366657220746f206e6f6e20455243373231526560408201527131b2b4bb32b91034b6b83632b6b2b73a32b960711b606082015260800190565b60008351611996818460208801611532565b8351908301906119aa818360208801611532565b01949350505050565b6001600160a01b03858116825284166020820152604081018390526080606082018190526000906119e69083018461155e565b9695505050505050565b600060208284031215611a0257600080fd5b815161112a816114ff565b6000600019821415611a2157611a216118ed565b5060010190565b634e487b7160e01b600052601260045260246000fd5b600082611a4d57611a4d611a28565b500490565b600082611a6157611a61611a28565b500690565b634e487b7160e01b600052603260045260246000fdfea2646970667358221220a2c23716e0972067b647488619e27eb792d54809bf0413c840e8bc163d2e718f64736f6c634300080b0033",
    "sourcePath": "/home/tabish-authornate/projects/drizzle-react-tutorial/contracts/PetShop.sol",
    "compiler": {
        "name": "solc",
        "version": "0.8.11+commit.d7f03943"
    },
    "functionHashes": {
        "approve(address,uint256)": "095ea7b3",
        "balanceOf(address)": "70a08231",
        "burn(uint256)": "42966c68",
        "getApproved(uint256)": "081812fc",
        "isApprovedForAll(address,address)": "e985e9c5",
        "name()": "06fdde03",
        "owner()": "8da5cb5b",
        "ownerOf(uint256)": "6352211e",
        "renounceOwnership()": "715018a6",
        "safeMint(address,string)": "d204c45e",
        "safeTransferFrom(address,address,uint256)": "42842e0e",
        "safeTransferFrom(address,address,uint256,bytes)": "b88d4fde",
        "setApprovalForAll(address,bool)": "a22cb465",
        "supportsInterface(bytes4)": "01ffc9a7",
        "symbol()": "95d89b41",
        "tokenURI(uint256)": "c87b56dd",
        "transferFrom(address,address,uint256)": "23b872dd",
        "transferOwnership(address)": "f2fde38b"
    },
    "gasEstimates": {
        "creation": {
            "codeDepositCost": "1366800",
            "executionCost": "infinite",
            "totalCost": "infinite"
        },
        "external": {
            "approve(address,uint256)": "infinite",
            "balanceOf(address)": "2700",
            "burn(uint256)": "infinite",
            "getApproved(uint256)": "4799",
            "isApprovedForAll(address,address)": "infinite",
            "name()": "infinite",
            "owner()": "2376",
            "ownerOf(uint256)": "2645",
            "renounceOwnership()": "28140",
            "safeMint(address,string)": "infinite",
            "safeTransferFrom(address,address,uint256)": "infinite",
            "safeTransferFrom(address,address,uint256,bytes)": "infinite",
            "setApprovalForAll(address,bool)": "26775",
            "supportsInterface(bytes4)": "534",
            "symbol()": "infinite",
            "tokenURI(uint256)": "infinite",
            "transferFrom(address,address,uint256)": "infinite",
            "transferOwnership(address)": "28422"
        },
        "internal": {
            "_burn(uint256)": "infinite"
        }
    }
}