{
    "contractName": "SimpleStorage",
    "abi": [
        {
            "anonymous": false,
            "inputs": [
                {
                    "indexed": true,
                    "internalType": "string",
                    "name": "data",
                    "type": "string"
                }
            ],
            "name": "DataChanged",
            "type": "event"
        },
        {
            "inputs": [],
            "name": "data",
            "outputs": [
                {
                    "internalType": "string",
                    "name": "",
                    "type": "string"
                }
            ],
            "stateMutability": "view",
            "type": "function"
        },
        {
            "inputs": [
                {
                    "internalType": "string",
                    "name": "_data",
                    "type": "string"
                }
            ],
            "name": "setData",
            "outputs": [],
            "stateMutability": "nonpayable",
            "type": "function"
        }
    ],
    "bytecode": "60c0604052600560808190526468656c6c6f60d81b60a09081526100269160009190610039565b5034801561003357600080fd5b5061010d565b828054610045906100d2565b90600052602060002090601f01602090048101928261006757600085556100ad565b82601f1061008057805160ff19168380011785556100ad565b828001600101855582156100ad579182015b828111156100ad578251825591602001919060010190610092565b506100b99291506100bd565b5090565b5b808211156100b957600081556001016100be565b600181811c908216806100e657607f821691505b6020821081141561010757634e487b7160e01b600052602260045260246000fd5b50919050565b61032e8061011c6000396000f3fe608060405234801561001057600080fd5b50600436106100365760003560e01c806347064d6a1461003b57806373d4a13a14610050575b600080fd5b61004e6100493660046101e6565b61006e565b005b6100586100bf565b6040516100659190610258565b60405180910390f35b61007a6000838361014d565b50818160405161008b9291906102ad565b604051908190038120907f88f327eef3daeb9db633dd53ad4d5f13a7b0c2fd8939b5267d547593d844708290600090a25050565b600080546100cc906102bd565b80601f01602080910402602001604051908101604052809291908181526020018280546100f8906102bd565b80156101455780601f1061011a57610100808354040283529160200191610145565b820191906000526020600020905b81548152906001019060200180831161012857829003601f168201915b505050505081565b828054610159906102bd565b90600052602060002090601f01602090048101928261017b57600085556101c1565b82601f106101945782800160ff198235161785556101c1565b828001600101855582156101c1579182015b828111156101c15782358255916020019190600101906101a6565b506101cd9291506101d1565b5090565b5b808211156101cd57600081556001016101d2565b600080602083850312156101f957600080fd5b823567ffffffffffffffff8082111561021157600080fd5b818501915085601f83011261022557600080fd5b81358181111561023457600080fd5b86602082850101111561024657600080fd5b60209290920196919550909350505050565b600060208083528351808285015260005b8181101561028557858101830151858201604001528201610269565b81811115610297576000604083870101525b50601f01601f1916929092016040019392505050565b8183823760009101908152919050565b600181811c908216806102d157607f821691505b602082108114156102f257634e487b7160e01b600052602260045260246000fd5b5091905056fea2646970667358221220899248f05b547c717a3103b78ffba5978a3997d6195f20a4e9125e515b73d3f364736f6c634300080b0033",
    "sourcePath": "/home/tabish-authornate/projects/drizzle-react-tutorial/contracts/SimpleStorage.sol",
    "compiler": {
        "name": "solc",
        "version": "0.8.11+commit.d7f03943"
    },
    "functionHashes": {
        "data()": "73d4a13a",
        "setData(string)": "47064d6a"
    },
    "gasEstimates": {
        "creation": {
            "codeDepositCost": "162800",
            "executionCost": "infinite",
            "totalCost": "infinite"
        },
        "external": {
            "data()": "infinite",
            "setData(string)": "infinite"
        }
    }
}