{
  "contractName": "SimpleStorage",
  "abi": [
    {
      "anonymous": false,
      "inputs": [
        {
          "indexed": true,
          "internalType": "string",
          "name": "data",
          "type": "string"
        }
      ],
      "name": "DataChanged",
      "type": "event"
    },
    {
      "inputs": [],
      "name": "data",
      "outputs": [
        {
          "internalType": "string",
          "name": "",
          "type": "string"
        }
      ],
      "stateMutability": "view",
      "type": "function",
      "constant": true
    },
    {
      "inputs": [
        {
          "internalType": "string",
          "name": "_data",
          "type": "string"
        }
      ],
      "name": "setData",
      "outputs": [],
      "stateMutability": "nonpayable",
      "type": "function"
    }
  ],
  "bytecode": "0x60806040526040518060400160405280600581526020017f68656c6c6f0000000000000000000000000000000000000000000000000000008152506000908051906020019061004f929190610062565b5034801561005c57600080fd5b50610166565b82805461006e90610134565b90600052602060002090601f01602090048101928261009057600085556100d7565b82601f106100a957805160ff19168380011785556100d7565b828001600101855582156100d7579182015b828111156100d65782518255916020019190600101906100bb565b5b5090506100e491906100e8565b5090565b5b808211156101015760008160009055506001016100e9565b5090565b7f4e487b7100000000000000000000000000000000000000000000000000000000600052602260045260246000fd5b6000600282049050600182168061014c57607f821691505b602082108114156101605761015f610105565b5b50919050565b610466806101756000396000f3fe608060405234801561001057600080fd5b50600436106100365760003560e01c806347064d6a1461003b57806373d4a13a14610057575b600080fd5b6100556004803603810190610050919061026f565b610075565b005b61005f6100cf565b60405161006c9190610355565b60405180910390f35b81816000919061008692919061015d565b5081816040516100979291906103b6565b60405180910390207f88f327eef3daeb9db633dd53ad4d5f13a7b0c2fd8939b5267d547593d844708260405160405180910390a25050565b600080546100dc906103fe565b80601f0160208091040260200160405190810160405280929190818152602001828054610108906103fe565b80156101555780601f1061012a57610100808354040283529160200191610155565b820191906000526020600020905b81548152906001019060200180831161013857829003601f168201915b505050505081565b828054610169906103fe565b90600052602060002090601f01602090048101928261018b57600085556101d2565b82601f106101a457803560ff19168380011785556101d2565b828001600101855582156101d2579182015b828111156101d15782358255916020019190600101906101b6565b5b5090506101df91906101e3565b5090565b5b808211156101fc5760008160009055506001016101e4565b5090565b600080fd5b600080fd5b600080fd5b600080fd5b600080fd5b60008083601f84011261022f5761022e61020a565b5b8235905067ffffffffffffffff81111561024c5761024b61020f565b5b60208301915083600182028301111561026857610267610214565b5b9250929050565b6000806020838503121561028657610285610200565b5b600083013567ffffffffffffffff8111156102a4576102a3610205565b5b6102b085828601610219565b92509250509250929050565b600081519050919050565b600082825260208201905092915050565b60005b838110156102f65780820151818401526020810190506102db565b83811115610305576000848401525b50505050565b6000601f19601f8301169050919050565b6000610327826102bc565b61033181856102c7565b93506103418185602086016102d8565b61034a8161030b565b840191505092915050565b6000602082019050818103600083015261036f818461031c565b905092915050565b600081905092915050565b82818337600083830152505050565b600061039d8385610377565b93506103aa838584610382565b82840190509392505050565b60006103c3828486610391565b91508190509392505050565b7f4e487b7100000000000000000000000000000000000000000000000000000000600052602260045260246000fd5b6000600282049050600182168061041657607f821691505b6020821081141561042a576104296103cf565b5b5091905056fea26469706673582212202bd02cf670e01e3167ac0f19b9aa1ae709faddc3f17700b26be74534367cf07a64736f6c634300080a0033",
  "immutableReferences": {},
  "source": "pragma solidity >=0.4.22 <0.9.0;\n// SPDX-License-Identifier: MIT\ncontract SimpleStorage {  \n    \n    string public data = \"hello\";\n    \n    event DataChanged(string indexed data);\n\n\n    function setData(string calldata _data) external \n    {     \n        data = _data;\n        emit DataChanged(_data);\n  }}\n",
  "sourcePath": "/home/tabish-authornate/projects/drizzle-react-tutorial/contracts/SimpleStorage.sol",
  "compiler": {
    "name": "solc",
    "version": "0.8.10+commit.fc410830.Emscripten.clang"
  },
  "schemaVersion": "3.4.4",
  "updatedAt": "2022-01-07T11:07:07.863Z",
  "networkType": "ethereum",
  "devdoc": {
    "kind": "dev",
    "methods": {},
    "version": 1
  },
  "userdoc": {
    "kind": "user",
    "methods": {},
    "version": 1
  }
}