{
  "contractName": "PetShop",
  "abi": [
    {
      "inputs": [],
      "stateMutability": "nonpayable",
      "type": "constructor"
    },
    {
      "anonymous": false,
      "inputs": [
        {
          "indexed": true,
          "internalType": "address",
          "name": "owner",
          "type": "address"
        },
        {
          "indexed": true,
          "internalType": "address",
          "name": "approved",
          "type": "address"
        },
        {
          "indexed": true,
          "internalType": "uint256",
          "name": "tokenId",
          "type": "uint256"
        }
      ],
      "name": "Approval",
      "type": "event"
    },
    {
      "anonymous": false,
      "inputs": [
        {
          "indexed": true,
          "internalType": "address",
          "name": "owner",
          "type": "address"
        },
        {
          "indexed": true,
          "internalType": "address",
          "name": "operator",
          "type": "address"
        },
        {
          "indexed": false,
          "internalType": "bool",
          "name": "approved",
          "type": "bool"
        }
      ],
      "name": "ApprovalForAll",
      "type": "event"
    },
    {
      "anonymous": false,
      "inputs": [
        {
          "indexed": true,
          "internalType": "address",
          "name": "previousOwner",
          "type": "address"
        },
        {
          "indexed": true,
          "internalType": "address",
          "name": "newOwner",
          "type": "address"
        }
      ],
      "name": "OwnershipTransferred",
      "type": "event"
    },
    {
      "anonymous": false,
      "inputs": [
        {
          "indexed": true,
          "internalType": "address",
          "name": "from",
          "type": "address"
        },
        {
          "indexed": true,
          "internalType": "address",
          "name": "to",
          "type": "address"
        },
        {
          "indexed": true,
          "internalType": "uint256",
          "name": "tokenId",
          "type": "uint256"
        }
      ],
      "name": "Transfer",
      "type": "event"
    },
    {
      "inputs": [
        {
          "internalType": "address",
          "name": "to",
          "type": "address"
        },
        {
          "internalType": "uint256",
          "name": "tokenId",
          "type": "uint256"
        }
      ],
      "name": "approve",
      "outputs": [],
      "stateMutability": "nonpayable",
      "type": "function"
    },
    {
      "inputs": [
        {
          "internalType": "address",
          "name": "owner",
          "type": "address"
        }
      ],
      "name": "balanceOf",
      "outputs": [
        {
          "internalType": "uint256",
          "name": "",
          "type": "uint256"
        }
      ],
      "stateMutability": "view",
      "type": "function"
    },
    {
      "inputs": [
        {
          "internalType": "uint256",
          "name": "tokenId",
          "type": "uint256"
        }
      ],
      "name": "burn",
      "outputs": [],
      "stateMutability": "nonpayable",
      "type": "function"
    },
    {
      "inputs": [
        {
          "internalType": "uint256",
          "name": "tokenId",
          "type": "uint256"
        }
      ],
      "name": "getApproved",
      "outputs": [
        {
          "internalType": "address",
          "name": "",
          "type": "address"
        }
      ],
      "stateMutability": "view",
      "type": "function"
    },
    {
      "inputs": [
        {
          "internalType": "address",
          "name": "owner",
          "type": "address"
        },
        {
          "internalType": "address",
          "name": "operator",
          "type": "address"
        }
      ],
      "name": "isApprovedForAll",
      "outputs": [
        {
          "internalType": "bool",
          "name": "",
          "type": "bool"
        }
      ],
      "stateMutability": "view",
      "type": "function"
    },
    {
      "inputs": [],
      "name": "name",
      "outputs": [
        {
          "internalType": "string",
          "name": "",
          "type": "string"
        }
      ],
      "stateMutability": "view",
      "type": "function"
    },
    {
      "inputs": [],
      "name": "owner",
      "outputs": [
        {
          "internalType": "address",
          "name": "",
          "type": "address"
        }
      ],
      "stateMutability": "view",
      "type": "function"
    },
    {
      "inputs": [
        {
          "internalType": "uint256",
          "name": "tokenId",
          "type": "uint256"
        }
      ],
      "name": "ownerOf",
      "outputs": [
        {
          "internalType": "address",
          "name": "",
          "type": "address"
        }
      ],
      "stateMutability": "view",
      "type": "function"
    },
    {
      "inputs": [],
      "name": "renounceOwnership",
      "outputs": [],
      "stateMutability": "nonpayable",
      "type": "function"
    },
    {
      "inputs": [
        {
          "internalType": "address",
          "name": "from",
          "type": "address"
        },
        {
          "internalType": "address",
          "name": "to",
          "type": "address"
        },
        {
          "internalType": "uint256",
          "name": "tokenId",
          "type": "uint256"
        }
      ],
      "name": "safeTransferFrom",
      "outputs": [],
      "stateMutability": "nonpayable",
      "type": "function"
    },
    {
      "inputs": [
        {
          "internalType": "address",
          "name": "from",
          "type": "address"
        },
        {
          "internalType": "address",
          "name": "to",
          "type": "address"
        },
        {
          "internalType": "uint256",
          "name": "tokenId",
          "type": "uint256"
        },
        {
          "internalType": "bytes",
          "name": "_data",
          "type": "bytes"
        }
      ],
      "name": "safeTransferFrom",
      "outputs": [],
      "stateMutability": "nonpayable",
      "type": "function"
    },
    {
      "inputs": [
        {
          "internalType": "address",
          "name": "operator",
          "type": "address"
        },
        {
          "internalType": "bool",
          "name": "approved",
          "type": "bool"
        }
      ],
      "name": "setApprovalForAll",
      "outputs": [],
      "stateMutability": "nonpayable",
      "type": "function"
    },
    {
      "inputs": [
        {
          "internalType": "bytes4",
          "name": "interfaceId",
          "type": "bytes4"
        }
      ],
      "name": "supportsInterface",
      "outputs": [
        {
          "internalType": "bool",
          "name": "",
          "type": "bool"
        }
      ],
      "stateMutability": "view",
      "type": "function"
    },
    {
      "inputs": [],
      "name": "symbol",
      "outputs": [
        {
          "internalType": "string",
          "name": "",
          "type": "string"
        }
      ],
      "stateMutability": "view",
      "type": "function"
    },
    {
      "inputs": [
        {
          "internalType": "address",
          "name": "from",
          "type": "address"
        },
        {
          "internalType": "address",
          "name": "to",
          "type": "address"
        },
        {
          "internalType": "uint256",
          "name": "tokenId",
          "type": "uint256"
        }
      ],
      "name": "transferFrom",
      "outputs": [],
      "stateMutability": "nonpayable",
      "type": "function"
    },
    {
      "inputs": [
        {
          "internalType": "address",
          "name": "newOwner",
          "type": "address"
        }
      ],
      "name": "transferOwnership",
      "outputs": [],
      "stateMutability": "nonpayable",
      "type": "function"
    },
    {
      "inputs": [
        {
          "internalType": "address",
          "name": "to",
          "type": "address"
        },
        {
          "internalType": "string",
          "name": "uri",
          "type": "string"
        }
      ],
      "name": "safeMint",
      "outputs": [],
      "stateMutability": "nonpayable",
      "type": "function"
    },
    {
      "inputs": [
        {
          "internalType": "uint256",
          "name": "tokenId",
          "type": "uint256"
        }
      ],
      "name": "Buy",
      "outputs": [],
      "stateMutability": "payable",
      "type": "function"
    },
    {
      "inputs": [
        {
          "internalType": "uint256",
          "name": "tokenId",
          "type": "uint256"
        }
      ],
      "name": "tokenURI",
      "outputs": [
        {
          "internalType": "string",
          "name": "",
          "type": "string"
        }
      ],
      "stateMutability": "view",
      "type": "function"
    },
    {
      "inputs": [
        {
          "internalType": "address",
          "name": "",
          "type": "address"
        },
        {
          "internalType": "address",
          "name": "",
          "type": "address"
        },
        {
          "internalType": "uint256",
          "name": "",
          "type": "uint256"
        },
        {
          "internalType": "bytes",
          "name": "",
          "type": "bytes"
        }
      ],
      "name": "onERC721Received",
      "outputs": [
        {
          "internalType": "bytes4",
          "name": "",
          "type": "bytes4"
        }
      ],
      "stateMutability": "pure",
      "type": "function"
    },
    {
      "inputs": [],
      "name": "totalSupply",
      "outputs": [
        {
          "internalType": "uint256",
          "name": "",
          "type": "uint256"
        }
      ],
      "stateMutability": "view",
      "type": "function"
    }
  ],
  "bytecode": "0x60806040523480156200001157600080fd5b506040518060400160405280600781526020017f50657453686f70000000000000000000000000000000000000000000000000008152506040518060400160405280600381526020017f5053480000000000000000000000000000000000000000000000000000000000815250816000908051906020019062000096929190620001a6565b508060019080519060200190620000af929190620001a6565b505050620000d2620000c6620000d860201b60201c565b620000e060201b60201c565b620002bb565b600033905090565b6000600760009054906101000a900473ffffffffffffffffffffffffffffffffffffffff16905081600760006101000a81548173ffffffffffffffffffffffffffffffffffffffff021916908373ffffffffffffffffffffffffffffffffffffffff1602179055508173ffffffffffffffffffffffffffffffffffffffff168173ffffffffffffffffffffffffffffffffffffffff167f8be0079c531659141344cd1fd0a4f28419497f9722a3daafe3b4186f6b6457e060405160405180910390a35050565b828054620001b49062000285565b90600052602060002090601f016020900481019282620001d8576000855562000224565b82601f10620001f357805160ff191683800117855562000224565b8280016001018555821562000224579182015b828111156200022357825182559160200191906001019062000206565b5b50905062000233919062000237565b5090565b5b808211156200025257600081600090555060010162000238565b5090565b7f4e487b7100000000000000000000000000000000000000000000000000000000600052602260045260246000fd5b600060028204905060018216806200029e57607f821691505b60208210811415620002b557620002b462000256565b5b50919050565b61351280620002cb6000396000f3fe60806040526004361061012a5760003560e01c80636352211e116100ab578063a22cb4651161006f578063a22cb465146103e3578063b88d4fde1461040c578063c87b56dd14610435578063d204c45e14610472578063e985e9c51461049b578063f2fde38b146104d85761012a565b80636352211e146102fc57806370a0823114610339578063715018a6146103765780638da5cb5b1461038d57806395d89b41146103b85761012a565b806318160ddd116100f257806318160ddd1461023a57806323b872dd146102655780633e3282181461028e57806342842e0e146102aa57806342966c68146102d35761012a565b806301ffc9a71461012f57806306fdde031461016c578063081812fc14610197578063095ea7b3146101d4578063150b7a02146101fd575b600080fd5b34801561013b57600080fd5b50610156600480360381019061015191906120ba565b610501565b6040516101639190612102565b60405180910390f35b34801561017857600080fd5b506101816105e3565b60405161018e91906121b6565b60405180910390f35b3480156101a357600080fd5b506101be60048036038101906101b9919061220e565b610675565b6040516101cb919061227c565b60405180910390f35b3480156101e057600080fd5b506101fb60048036038101906101f691906122c3565b6106fa565b005b34801561020957600080fd5b50610224600480360381019061021f9190612438565b610812565b60405161023191906124ca565b60405180910390f35b34801561024657600080fd5b5061024f61083f565b60405161025c91906124f4565b60405180910390f35b34801561027157600080fd5b5061028c6004803603810190610287919061250f565b610850565b005b6102a860048036038101906102a3919061220e565b6108b0565b005b3480156102b657600080fd5b506102d160048036038101906102cc919061250f565b6108be565b005b3480156102df57600080fd5b506102fa60048036038101906102f5919061220e565b6108de565b005b34801561030857600080fd5b50610323600480360381019061031e919061220e565b61093a565b604051610330919061227c565b60405180910390f35b34801561034557600080fd5b50610360600480360381019061035b9190612562565b6109ec565b60405161036d91906124f4565b60405180910390f35b34801561038257600080fd5b5061038b610aa4565b005b34801561039957600080fd5b506103a2610b2c565b6040516103af919061227c565b60405180910390f35b3480156103c457600080fd5b506103cd610b56565b6040516103da91906121b6565b60405180910390f35b3480156103ef57600080fd5b5061040a600480360381019061040591906125bb565b610be8565b005b34801561041857600080fd5b50610433600480360381019061042e9190612438565b610bfe565b005b34801561044157600080fd5b5061045c6004803603810190610457919061220e565b610c60565b60405161046991906121b6565b60405180910390f35b34801561047e57600080fd5b506104996004803603810190610494919061269c565b610c72565b005b3480156104a757600080fd5b506104c260048036038101906104bd91906126f8565b610d1f565b6040516104cf9190612102565b60405180910390f35b3480156104e457600080fd5b506104ff60048036038101906104fa9190612562565b610db3565b005b60007f80ac58cd000000000000000000000000000000000000000000000000000000007bffffffffffffffffffffffffffffffffffffffffffffffffffffffff1916827bffffffffffffffffffffffffffffffffffffffffffffffffffffffff191614806105cc57507f5b5e139f000000000000000000000000000000000000000000000000000000007bffffffffffffffffffffffffffffffffffffffffffffffffffffffff1916827bffffffffffffffffffffffffffffffffffffffffffffffffffffffff1916145b806105dc57506105db82610eab565b5b9050919050565b6060600080546105f290612767565b80601f016020809104026020016040519081016040528092919081815260200182805461061e90612767565b801561066b5780601f106106405761010080835404028352916020019161066b565b820191906000526020600020905b81548152906001019060200180831161064e57829003601f168201915b5050505050905090565b600061068082610f15565b6106bf576040517f08c379a00000000000000000000000000000000000000000000000000000000081526004016106b69061280b565b60405180910390fd5b6004600083815260200190815260200160002060009054906101000a900473ffffffffffffffffffffffffffffffffffffffff169050919050565b60006107058261093a565b90508073ffffffffffffffffffffffffffffffffffffffff168373ffffffffffffffffffffffffffffffffffffffff161415610776576040517f08c379a000000000000000000000000000000000000000000000000000000000815260040161076d9061289d565b60405180910390fd5b8073ffffffffffffffffffffffffffffffffffffffff16610795610f81565b73ffffffffffffffffffffffffffffffffffffffff1614806107c457506107c3816107be610f81565b610d1f565b5b610803576040517f08c379a00000000000000000000000000000000000000000000000000000000081526004016107fa9061292f565b60405180910390fd5b61080d8383610f89565b505050565b60007f150b7a023d4804d13e8c85fb27262cb750cf6ba9f9dd3bb30d90f482ceeb4b1f9050949350505050565b600061084b6008611042565b905090565b61086161085b610f81565b82611050565b6108a0576040517f08c379a0000000000000000000000000000000000000000000000000000000008152600401610897906129c1565b60405180910390fd5b6108ab83838361112e565b505050565b6108bb30338361112e565b50565b6108d983838360405180602001604052806000815250610bfe565b505050565b6108ef6108e9610f81565b82611050565b61092e576040517f08c379a000000000000000000000000000000000000000000000000000000000815260040161092590612a53565b60405180910390fd5b6109378161138a565b50565b6000806002600084815260200190815260200160002060009054906101000a900473ffffffffffffffffffffffffffffffffffffffff169050600073ffffffffffffffffffffffffffffffffffffffff168173ffffffffffffffffffffffffffffffffffffffff1614156109e3576040517f08c379a00000000000000000000000000000000000000000000000000000000081526004016109da90612ae5565b60405180910390fd5b80915050919050565b60008073ffffffffffffffffffffffffffffffffffffffff168273ffffffffffffffffffffffffffffffffffffffff161415610a5d576040517f08c379a0000000000000000000000000000000000000000000000000000000008152600401610a5490612b77565b60405180910390fd5b600360008373ffffffffffffffffffffffffffffffffffffffff1673ffffffffffffffffffffffffffffffffffffffff168152602001908152602001600020549050919050565b610aac610f81565b73ffffffffffffffffffffffffffffffffffffffff16610aca610b2c565b73ffffffffffffffffffffffffffffffffffffffff1614610b20576040517f08c379a0000000000000000000000000000000000000000000000000000000008152600401610b1790612be3565b60405180910390fd5b610b2a6000611396565b565b6000600760009054906101000a900473ffffffffffffffffffffffffffffffffffffffff16905090565b606060018054610b6590612767565b80601f0160208091040260200160405190810160405280929190818152602001828054610b9190612767565b8015610bde5780601f10610bb357610100808354040283529160200191610bde565b820191906000526020600020905b815481529060010190602001808311610bc157829003601f168201915b5050505050905090565b610bfa610bf3610f81565b838361145c565b5050565b610c0f610c09610f81565b83611050565b610c4e576040517f08c379a0000000000000000000000000000000000000000000000000000000008152600401610c45906129c1565b60405180910390fd5b610c5a848484846115c9565b50505050565b6060610c6b82611625565b9050919050565b610c7a610f81565b73ffffffffffffffffffffffffffffffffffffffff16610c98610b2c565b73ffffffffffffffffffffffffffffffffffffffff1614610cee576040517f08c379a0000000000000000000000000000000000000000000000000000000008152600401610ce590612be3565b60405180910390fd5b6000610cfa6008611042565b9050610d066008611777565b610d10838261178d565b610d1a81836117ab565b505050565b6000600560008473ffffffffffffffffffffffffffffffffffffffff1673ffffffffffffffffffffffffffffffffffffffff16815260200190815260200160002060008373ffffffffffffffffffffffffffffffffffffffff1673ffffffffffffffffffffffffffffffffffffffff16815260200190815260200160002060009054906101000a900460ff16905092915050565b610dbb610f81565b73ffffffffffffffffffffffffffffffffffffffff16610dd9610b2c565b73ffffffffffffffffffffffffffffffffffffffff1614610e2f576040517f08c379a0000000000000000000000000000000000000000000000000000000008152600401610e2690612be3565b60405180910390fd5b600073ffffffffffffffffffffffffffffffffffffffff168173ffffffffffffffffffffffffffffffffffffffff161415610e9f576040517f08c379a0000000000000000000000000000000000000000000000000000000008152600401610e9690612c75565b60405180910390fd5b610ea881611396565b50565b60007f01ffc9a7000000000000000000000000000000000000000000000000000000007bffffffffffffffffffffffffffffffffffffffffffffffffffffffff1916827bffffffffffffffffffffffffffffffffffffffffffffffffffffffff1916149050919050565b60008073ffffffffffffffffffffffffffffffffffffffff166002600084815260200190815260200160002060009054906101000a900473ffffffffffffffffffffffffffffffffffffffff1673ffffffffffffffffffffffffffffffffffffffff1614159050919050565b600033905090565b816004600083815260200190815260200160002060006101000a81548173ffffffffffffffffffffffffffffffffffffffff021916908373ffffffffffffffffffffffffffffffffffffffff160217905550808273ffffffffffffffffffffffffffffffffffffffff16610ffc8361093a565b73ffffffffffffffffffffffffffffffffffffffff167f8c5be1e5ebec7d5bd14f71427d1e84f3dd0314c0f7b2291e5b200ac8c7c3b92560405160405180910390a45050565b600081600001549050919050565b600061105b82610f15565b61109a576040517f08c379a000000000000000000000000000000000000000000000000000000000815260040161109190612d07565b60405180910390fd5b60006110a58361093a565b90508073ffffffffffffffffffffffffffffffffffffffff168473ffffffffffffffffffffffffffffffffffffffff16148061111457508373ffffffffffffffffffffffffffffffffffffffff166110fc84610675565b73ffffffffffffffffffffffffffffffffffffffff16145b8061112557506111248185610d1f565b5b91505092915050565b8273ffffffffffffffffffffffffffffffffffffffff1661114e8261093a565b73ffffffffffffffffffffffffffffffffffffffff16146111a4576040517f08c379a000000000000000000000000000000000000000000000000000000000815260040161119b90612d99565b60405180910390fd5b600073ffffffffffffffffffffffffffffffffffffffff168273ffffffffffffffffffffffffffffffffffffffff161415611214576040517f08c379a000000000000000000000000000000000000000000000000000000000815260040161120b90612e2b565b60405180910390fd5b61121f83838361181f565b61122a600082610f89565b6001600360008573ffffffffffffffffffffffffffffffffffffffff1673ffffffffffffffffffffffffffffffffffffffff168152602001908152602001600020600082825461127a9190612e7a565b925050819055506001600360008473ffffffffffffffffffffffffffffffffffffffff1673ffffffffffffffffffffffffffffffffffffffff16815260200190815260200160002060008282546112d19190612eae565b92505081905550816002600083815260200190815260200160002060006101000a81548173ffffffffffffffffffffffffffffffffffffffff021916908373ffffffffffffffffffffffffffffffffffffffff160217905550808273ffffffffffffffffffffffffffffffffffffffff168473ffffffffffffffffffffffffffffffffffffffff167fddf252ad1be2c89b69c2b068fc378daa952ba7f163c4a11628f55a4df523b3ef60405160405180910390a4505050565b61139381611824565b50565b6000600760009054906101000a900473ffffffffffffffffffffffffffffffffffffffff16905081600760006101000a81548173ffffffffffffffffffffffffffffffffffffffff021916908373ffffffffffffffffffffffffffffffffffffffff1602179055508173ffffffffffffffffffffffffffffffffffffffff168173ffffffffffffffffffffffffffffffffffffffff167f8be0079c531659141344cd1fd0a4f28419497f9722a3daafe3b4186f6b6457e060405160405180910390a35050565b8173ffffffffffffffffffffffffffffffffffffffff168373ffffffffffffffffffffffffffffffffffffffff1614156114cb576040517f08c379a00000000000000000000000000000000000000000000000000000000081526004016114c290612f50565b60405180910390fd5b80600560008573ffffffffffffffffffffffffffffffffffffffff1673ffffffffffffffffffffffffffffffffffffffff16815260200190815260200160002060008473ffffffffffffffffffffffffffffffffffffffff1673ffffffffffffffffffffffffffffffffffffffff16815260200190815260200160002060006101000a81548160ff0219169083151502179055508173ffffffffffffffffffffffffffffffffffffffff168373ffffffffffffffffffffffffffffffffffffffff167f17307eab39ab6107e8899845ad3d59bd9653f200f220920489ca2b5937696c31836040516115bc9190612102565b60405180910390a3505050565b6115d484848461112e565b6115e084848484611877565b61161f576040517f08c379a000000000000000000000000000000000000000000000000000000000815260040161161690612fe2565b60405180910390fd5b50505050565b606061163082610f15565b61166f576040517f08c379a000000000000000000000000000000000000000000000000000000000815260040161166690613074565b60405180910390fd5b600060066000848152602001908152602001600020805461168f90612767565b80601f01602080910402602001604051908101604052809291908181526020018280546116bb90612767565b80156117085780601f106116dd57610100808354040283529160200191611708565b820191906000526020600020905b8154815290600101906020018083116116eb57829003601f168201915b5050505050905060006117196119ff565b905060008151141561172f578192505050611772565b60008251111561176457808260405160200161174c9291906130d0565b60405160208183030381529060405292505050611772565b61176d84611a16565b925050505b919050565b6001816000016000828254019250508190555050565b6117a7828260405180602001604052806000815250611abd565b5050565b6117b482610f15565b6117f3576040517f08c379a00000000000000000000000000000000000000000000000000000000081526004016117ea90613166565b60405180910390fd5b8060066000848152602001908152602001600020908051906020019061181a929190611f6b565b505050565b505050565b61182d81611b18565b600060066000838152602001908152602001600020805461184d90612767565b905014611874576006600082815260200190815260200160002060006118739190611ff1565b5b50565b60006118988473ffffffffffffffffffffffffffffffffffffffff16611c29565b156119f2578373ffffffffffffffffffffffffffffffffffffffff1663150b7a026118c1610f81565b8786866040518563ffffffff1660e01b81526004016118e394939291906131db565b6020604051808303816000875af192505050801561191f57506040513d601f19601f8201168201806040525081019061191c919061323c565b60015b6119a2573d806000811461194f576040519150601f19603f3d011682016040523d82523d6000602084013e611954565b606091505b5060008151141561199a576040517f08c379a000000000000000000000000000000000000000000000000000000000815260040161199190612fe2565b60405180910390fd5b805181602001fd5b63150b7a0260e01b7bffffffffffffffffffffffffffffffffffffffffffffffffffffffff1916817bffffffffffffffffffffffffffffffffffffffffffffffffffffffff1916149150506119f7565b600190505b949350505050565b606060405180602001604052806000815250905090565b6060611a2182610f15565b611a60576040517f08c379a0000000000000000000000000000000000000000000000000000000008152600401611a57906132db565b60405180910390fd5b6000611a6a6119ff565b90506000815111611a8a5760405180602001604052806000815250611ab5565b80611a9484611c3c565b604051602001611aa59291906130d0565b6040516020818303038152906040525b915050919050565b611ac78383611d9d565b611ad46000848484611877565b611b13576040517f08c379a0000000000000000000000000000000000000000000000000000000008152600401611b0a90612fe2565b60405180910390fd5b505050565b6000611b238261093a565b9050611b318160008461181f565b611b3c600083610f89565b6001600360008373ffffffffffffffffffffffffffffffffffffffff1673ffffffffffffffffffffffffffffffffffffffff1681526020019081526020016000206000828254611b8c9190612e7a565b925050819055506002600083815260200190815260200160002060006101000a81549073ffffffffffffffffffffffffffffffffffffffff021916905581600073ffffffffffffffffffffffffffffffffffffffff168273ffffffffffffffffffffffffffffffffffffffff167fddf252ad1be2c89b69c2b068fc378daa952ba7f163c4a11628f55a4df523b3ef60405160405180910390a45050565b600080823b905060008111915050919050565b60606000821415611c84576040518060400160405280600181526020017f30000000000000000000000000000000000000000000000000000000000000008152509050611d98565b600082905060005b60008214611cb6578080611c9f906132fb565b915050600a82611caf9190613373565b9150611c8c565b60008167ffffffffffffffff811115611cd257611cd161230d565b5b6040519080825280601f01601f191660200182016040528015611d045781602001600182028036833780820191505090505b5090505b60008514611d9157600182611d1d9190612e7a565b9150600a85611d2c91906133a4565b6030611d389190612eae565b60f81b818381518110611d4e57611d4d6133d5565b5b60200101907effffffffffffffffffffffffffffffffffffffffffffffffffffffffffffff1916908160001a905350600a85611d8a9190613373565b9450611d08565b8093505050505b919050565b600073ffffffffffffffffffffffffffffffffffffffff168273ffffffffffffffffffffffffffffffffffffffff161415611e0d576040517f08c379a0000000000000000000000000000000000000000000000000000000008152600401611e0490613450565b60405180910390fd5b611e1681610f15565b15611e56576040517f08c379a0000000000000000000000000000000000000000000000000000000008152600401611e4d906134bc565b60405180910390fd5b611e626000838361181f565b6001600360008473ffffffffffffffffffffffffffffffffffffffff1673ffffffffffffffffffffffffffffffffffffffff1681526020019081526020016000206000828254611eb29190612eae565b92505081905550816002600083815260200190815260200160002060006101000a81548173ffffffffffffffffffffffffffffffffffffffff021916908373ffffffffffffffffffffffffffffffffffffffff160217905550808273ffffffffffffffffffffffffffffffffffffffff16600073ffffffffffffffffffffffffffffffffffffffff167fddf252ad1be2c89b69c2b068fc378daa952ba7f163c4a11628f55a4df523b3ef60405160405180910390a45050565b828054611f7790612767565b90600052602060002090601f016020900481019282611f995760008555611fe0565b82601f10611fb257805160ff1916838001178555611fe0565b82800160010185558215611fe0579182015b82811115611fdf578251825591602001919060010190611fc4565b5b509050611fed9190612031565b5090565b508054611ffd90612767565b6000825580601f1061200f575061202e565b601f01602090049060005260206000209081019061202d9190612031565b5b50565b5b8082111561204a576000816000905550600101612032565b5090565b6000604051905090565b600080fd5b600080fd5b60007fffffffff0000000000000000000000000000000000000000000000000000000082169050919050565b61209781612062565b81146120a257600080fd5b50565b6000813590506120b48161208e565b92915050565b6000602082840312156120d0576120cf612058565b5b60006120de848285016120a5565b91505092915050565b60008115159050919050565b6120fc816120e7565b82525050565b600060208201905061211760008301846120f3565b92915050565b600081519050919050565b600082825260208201905092915050565b60005b8381101561215757808201518184015260208101905061213c565b83811115612166576000848401525b50505050565b6000601f19601f8301169050919050565b60006121888261211d565b6121928185612128565b93506121a2818560208601612139565b6121ab8161216c565b840191505092915050565b600060208201905081810360008301526121d0818461217d565b905092915050565b6000819050919050565b6121eb816121d8565b81146121f657600080fd5b50565b600081359050612208816121e2565b92915050565b60006020828403121561222457612223612058565b5b6000612232848285016121f9565b91505092915050565b600073ffffffffffffffffffffffffffffffffffffffff82169050919050565b60006122668261223b565b9050919050565b6122768161225b565b82525050565b6000602082019050612291600083018461226d565b92915050565b6122a08161225b565b81146122ab57600080fd5b50565b6000813590506122bd81612297565b92915050565b600080604083850312156122da576122d9612058565b5b60006122e8858286016122ae565b92505060206122f9858286016121f9565b9150509250929050565b600080fd5b600080fd5b7f4e487b7100000000000000000000000000000000000000000000000000000000600052604160045260246000fd5b6123458261216c565b810181811067ffffffffffffffff821117156123645761236361230d565b5b80604052505050565b600061237761204e565b9050612383828261233c565b919050565b600067ffffffffffffffff8211156123a3576123a261230d565b5b6123ac8261216c565b9050602081019050919050565b82818337600083830152505050565b60006123db6123d684612388565b61236d565b9050828152602081018484840111156123f7576123f6612308565b5b6124028482856123b9565b509392505050565b600082601f83011261241f5761241e612303565b5b813561242f8482602086016123c8565b91505092915050565b6000806000806080858703121561245257612451612058565b5b6000612460878288016122ae565b9450506020612471878288016122ae565b9350506040612482878288016121f9565b925050606085013567ffffffffffffffff8111156124a3576124a261205d565b5b6124af8782880161240a565b91505092959194509250565b6124c481612062565b82525050565b60006020820190506124df60008301846124bb565b92915050565b6124ee816121d8565b82525050565b600060208201905061250960008301846124e5565b92915050565b60008060006060848603121561252857612527612058565b5b6000612536868287016122ae565b9350506020612547868287016122ae565b9250506040612558868287016121f9565b9150509250925092565b60006020828403121561257857612577612058565b5b6000612586848285016122ae565b91505092915050565b612598816120e7565b81146125a357600080fd5b50565b6000813590506125b58161258f565b92915050565b600080604083850312156125d2576125d1612058565b5b60006125e0858286016122ae565b92505060206125f1858286016125a6565b9150509250929050565b600067ffffffffffffffff8211156126165761261561230d565b5b61261f8261216c565b9050602081019050919050565b600061263f61263a846125fb565b61236d565b90508281526020810184848401111561265b5761265a612308565b5b6126668482856123b9565b509392505050565b600082601f83011261268357612682612303565b5b813561269384826020860161262c565b91505092915050565b600080604083850312156126b3576126b2612058565b5b60006126c1858286016122ae565b925050602083013567ffffffffffffffff8111156126e2576126e161205d565b5b6126ee8582860161266e565b9150509250929050565b6000806040838503121561270f5761270e612058565b5b600061271d858286016122ae565b925050602061272e858286016122ae565b9150509250929050565b7f4e487b7100000000000000000000000000000000000000000000000000000000600052602260045260246000fd5b6000600282049050600182168061277f57607f821691505b6020821081141561279357612792612738565b5b50919050565b7f4552433732313a20617070726f76656420717565727920666f72206e6f6e657860008201527f697374656e7420746f6b656e0000000000000000000000000000000000000000602082015250565b60006127f5602c83612128565b915061280082612799565b604082019050919050565b60006020820190508181036000830152612824816127e8565b9050919050565b7f4552433732313a20617070726f76616c20746f2063757272656e74206f776e6560008201527f7200000000000000000000000000000000000000000000000000000000000000602082015250565b6000612887602183612128565b91506128928261282b565b604082019050919050565b600060208201905081810360008301526128b68161287a565b9050919050565b7f4552433732313a20617070726f76652063616c6c6572206973206e6f74206f7760008201527f6e6572206e6f7220617070726f76656420666f7220616c6c0000000000000000602082015250565b6000612919603883612128565b9150612924826128bd565b604082019050919050565b600060208201905081810360008301526129488161290c565b9050919050565b7f4552433732313a207472616e736665722063616c6c6572206973206e6f74206f60008201527f776e6572206e6f7220617070726f766564000000000000000000000000000000602082015250565b60006129ab603183612128565b91506129b68261294f565b604082019050919050565b600060208201905081810360008301526129da8161299e565b9050919050565b7f4552433732314275726e61626c653a2063616c6c6572206973206e6f74206f7760008201527f6e6572206e6f7220617070726f76656400000000000000000000000000000000602082015250565b6000612a3d603083612128565b9150612a48826129e1565b604082019050919050565b60006020820190508181036000830152612a6c81612a30565b9050919050565b7f4552433732313a206f776e657220717565727920666f72206e6f6e657869737460008201527f656e7420746f6b656e0000000000000000000000000000000000000000000000602082015250565b6000612acf602983612128565b9150612ada82612a73565b604082019050919050565b60006020820190508181036000830152612afe81612ac2565b9050919050565b7f4552433732313a2062616c616e636520717565727920666f7220746865207a6560008201527f726f206164647265737300000000000000000000000000000000000000000000602082015250565b6000612b61602a83612128565b9150612b6c82612b05565b604082019050919050565b60006020820190508181036000830152612b9081612b54565b9050919050565b7f4f776e61626c653a2063616c6c6572206973206e6f7420746865206f776e6572600082015250565b6000612bcd602083612128565b9150612bd882612b97565b602082019050919050565b60006020820190508181036000830152612bfc81612bc0565b9050919050565b7f4f776e61626c653a206e6577206f776e657220697320746865207a65726f206160008201527f6464726573730000000000000000000000000000000000000000000000000000602082015250565b6000612c5f602683612128565b9150612c6a82612c03565b604082019050919050565b60006020820190508181036000830152612c8e81612c52565b9050919050565b7f4552433732313a206f70657261746f7220717565727920666f72206e6f6e657860008201527f697374656e7420746f6b656e0000000000000000000000000000000000000000602082015250565b6000612cf1602c83612128565b9150612cfc82612c95565b604082019050919050565b60006020820190508181036000830152612d2081612ce4565b9050919050565b7f4552433732313a207472616e73666572206f6620746f6b656e2074686174206960008201527f73206e6f74206f776e0000000000000000000000000000000000000000000000602082015250565b6000612d83602983612128565b9150612d8e82612d27565b604082019050919050565b60006020820190508181036000830152612db281612d76565b9050919050565b7f4552433732313a207472616e7366657220746f20746865207a65726f2061646460008201527f7265737300000000000000000000000000000000000000000000000000000000602082015250565b6000612e15602483612128565b9150612e2082612db9565b604082019050919050565b60006020820190508181036000830152612e4481612e08565b9050919050565b7f4e487b7100000000000000000000000000000000000000000000000000000000600052601160045260246000fd5b6000612e85826121d8565b9150612e90836121d8565b925082821015612ea357612ea2612e4b565b5b828203905092915050565b6000612eb9826121d8565b9150612ec4836121d8565b9250827fffffffffffffffffffffffffffffffffffffffffffffffffffffffffffffffff03821115612ef957612ef8612e4b565b5b828201905092915050565b7f4552433732313a20617070726f766520746f2063616c6c657200000000000000600082015250565b6000612f3a601983612128565b9150612f4582612f04565b602082019050919050565b60006020820190508181036000830152612f6981612f2d565b9050919050565b7f4552433732313a207472616e7366657220746f206e6f6e20455243373231526560008201527f63656976657220696d706c656d656e7465720000000000000000000000000000602082015250565b6000612fcc603283612128565b9150612fd782612f70565b604082019050919050565b60006020820190508181036000830152612ffb81612fbf565b9050919050565b7f45524337323155524953746f726167653a2055524920717565727920666f722060008201527f6e6f6e6578697374656e7420746f6b656e000000000000000000000000000000602082015250565b600061305e603183612128565b915061306982613002565b604082019050919050565b6000602082019050818103600083015261308d81613051565b9050919050565b600081905092915050565b60006130aa8261211d565b6130b48185613094565b93506130c4818560208601612139565b80840191505092915050565b60006130dc828561309f565b91506130e8828461309f565b91508190509392505050565b7f45524337323155524953746f726167653a2055524920736574206f66206e6f6e60008201527f6578697374656e7420746f6b656e000000000000000000000000000000000000602082015250565b6000613150602e83612128565b915061315b826130f4565b604082019050919050565b6000602082019050818103600083015261317f81613143565b9050919050565b600081519050919050565b600082825260208201905092915050565b60006131ad82613186565b6131b78185613191565b93506131c7818560208601612139565b6131d08161216c565b840191505092915050565b60006080820190506131f0600083018761226d565b6131fd602083018661226d565b61320a60408301856124e5565b818103606083015261321c81846131a2565b905095945050505050565b6000815190506132368161208e565b92915050565b60006020828403121561325257613251612058565b5b600061326084828501613227565b91505092915050565b7f4552433732314d657461646174613a2055524920717565727920666f72206e6f60008201527f6e6578697374656e7420746f6b656e0000000000000000000000000000000000602082015250565b60006132c5602f83612128565b91506132d082613269565b604082019050919050565b600060208201905081810360008301526132f4816132b8565b9050919050565b6000613306826121d8565b91507fffffffffffffffffffffffffffffffffffffffffffffffffffffffffffffffff82141561333957613338612e4b565b5b600182019050919050565b7f4e487b7100000000000000000000000000000000000000000000000000000000600052601260045260246000fd5b600061337e826121d8565b9150613389836121d8565b92508261339957613398613344565b5b828204905092915050565b60006133af826121d8565b91506133ba836121d8565b9250826133ca576133c9613344565b5b828206905092915050565b7f4e487b7100000000000000000000000000000000000000000000000000000000600052603260045260246000fd5b7f4552433732313a206d696e7420746f20746865207a65726f2061646472657373600082015250565b600061343a602083612128565b915061344582613404565b602082019050919050565b600060208201905081810360008301526134698161342d565b9050919050565b7f4552433732313a20746f6b656e20616c7265616479206d696e74656400000000600082015250565b60006134a6601c83612128565b91506134b182613470565b602082019050919050565b600060208201905081810360008301526134d581613499565b905091905056fea2646970667358221220a5692039c4bc4fa050a31bcf8a2e88a8eb8aefba5ca23087db31e07da62986b664736f6c634300080a0033",
  "immutableReferences": {},
  "source": "// SPDX-License-Identifier: MIT\npragma solidity ^0.8.0;\n\nimport \"@openzeppelin/contracts/token/ERC721/ERC721.sol\";\nimport \"@openzeppelin/contracts/token/ERC721/extensions/ERC721URIStorage.sol\";\nimport \"@openzeppelin/contracts/token/ERC721/extensions/ERC721Burnable.sol\";\nimport \"@openzeppelin/contracts/access/Ownable.sol\";\nimport \"@openzeppelin/contracts/utils/Counters.sol\";\nimport \"@openzeppelin/contracts/token/ERC721/IERC721Receiver.sol\";\n\ncontract PetShop is ERC721, ERC721URIStorage, ERC721Burnable, Ownable, IERC721Receiver {\n    using Counters for Counters.Counter;\n\n    Counters.Counter private _tokenIdCounter;\n\n    constructor() ERC721(\"PetShop\", \"PSH\") {}\n\n    function safeMint(address to, string memory uri) public onlyOwner {\n        uint256 tokenId = _tokenIdCounter.current();\n        _tokenIdCounter.increment();\n        _safeMint(to, tokenId);\n        _setTokenURI(tokenId, uri);\n    }\n\n    function Buy(uint256 tokenId) payable public {\n        _transfer(address(this), msg.sender, tokenId);\n    }\n\n    // The following functions are overrides required by Solidity.\n\n    function _burn(uint256 tokenId) internal override(ERC721, ERC721URIStorage) {\n        super._burn(tokenId);\n    }\n\n    function tokenURI(uint256 tokenId)\n        public\n        view\n        override(ERC721, ERC721URIStorage)\n        returns (string memory)\n    {\n        return super.tokenURI(tokenId);\n    }\n\n    function onERC721Received(address , address , uint256 , bytes memory) external pure override returns (bytes4){\n        return bytes4(keccak256(\"onERC721Received(address,address,uint256,bytes)\"));\n    }\n\n    function totalSupply() public view returns(uint256)\n    {\n        return _tokenIdCounter.current();\n    }\n}\n",
  "sourcePath": "/home/tabish-authornate/projects/PetShop/contracts/PetShop.sol",
  "compiler": {
    "name": "solc",
    "version": "0.8.10+commit.fc410830.Emscripten.clang"
  },
  "schemaVersion": "3.4.4",
  "updatedAt": "2022-01-17T12:26:55.919Z",
  "devdoc": {
    "kind": "dev",
    "methods": {
      "approve(address,uint256)": {
        "details": "See {IERC721-approve}."
      },
      "balanceOf(address)": {
        "details": "See {IERC721-balanceOf}."
      },
      "burn(uint256)": {
        "details": "Burns `tokenId`. See {ERC721-_burn}. Requirements: - The caller must own `tokenId` or be an approved operator."
      },
      "getApproved(uint256)": {
        "details": "See {IERC721-getApproved}."
      },
      "isApprovedForAll(address,address)": {
        "details": "See {IERC721-isApprovedForAll}."
      },
      "name()": {
        "details": "See {IERC721Metadata-name}."
      },
      "owner()": {
        "details": "Returns the address of the current owner."
      },
      "ownerOf(uint256)": {
        "details": "See {IERC721-ownerOf}."
      },
      "renounceOwnership()": {
        "details": "Leaves the contract without owner. It will not be possible to call `onlyOwner` functions anymore. Can only be called by the current owner. NOTE: Renouncing ownership will leave the contract without an owner, thereby removing any functionality that is only available to the owner."
      },
      "safeTransferFrom(address,address,uint256)": {
        "details": "See {IERC721-safeTransferFrom}."
      },
      "safeTransferFrom(address,address,uint256,bytes)": {
        "details": "See {IERC721-safeTransferFrom}."
      },
      "setApprovalForAll(address,bool)": {
        "details": "See {IERC721-setApprovalForAll}."
      },
      "supportsInterface(bytes4)": {
        "details": "See {IERC165-supportsInterface}."
      },
      "symbol()": {
        "details": "See {IERC721Metadata-symbol}."
      },
      "transferFrom(address,address,uint256)": {
        "details": "See {IERC721-transferFrom}."
      },
      "transferOwnership(address)": {
        "details": "Transfers ownership of the contract to a new account (`newOwner`). Can only be called by the current owner."
      }
    },
    "version": 1
  },
  "userdoc": {
    "kind": "user",
    "methods": {},
    "version": 1
  }
}